:030000000201A258
:03004300020100B7
:1001000002017F0002017F0002017F0002017F00E7
:1001100002017F0002017F0002017F0002017F00D7
:1001200002017F0002017F0002017F0002017F00C7
:1001300002017F000202C20002017F0002017F0073
:1001400002017F0002017F0002017F0002017F00A7
:1001500002017F0002017F0002017F0002017F0097
:1001600002017F0002017F0002017F0002017F0087
:1001700002017F0002017F0002017F0002017FC0B7
:1001800086C082C083C084C085C0E0C0D0E591C273
:10019000E4F591D0D0D0E0D085D084D083D082D087
:1001A000863290E60B74031203E290E6007410129C
:1001B00003E290E60174A21203E290E60474801256
:1001C00003E274081203E274021203E274041203DD
:1001D000E274061203E274001203E290E668740807
:1001E0001203E21202831201FD1201EE80FBE570A0
:1001F000600AE5BB548060047406F5BB2290E614E7
:1002000074E01203E290E61A74091203E290E62405
:1002100074021203E290E62574001203E290E6C035
:1002200074FC1203E290E6C374801203E290E6C20B
:1002300074FF1203E274FD1203E274FF1203E2740E
:100240000290E6E21203E2740190E6E31203E27424
:100250000090E6F31203E2740090E6C11203E2900C
:10026000E420743F1203E290E42874011203E29048
:10027000E43074FF1203E290E43874FF1203E27575
:1002800070002290E61374A01203E290E6957400C9
:100290001203E21203E21203E290E6157400120365
:1002A000E290E65E74201203E290E65F7424F09020
:1002B000E65C7400F090E6607400F075E80175A8E3
:1002C0008022C086C082C083C084C085C0E0C0D008
:1002D000C000C001C002C003C004C005C006C00702
:1002E00090F400E09002E92373800580000203A0EF
:1002F00075700090E61A74001203E290E6F574FF40
:100300001203E2E5BB548060FA90E6C074FDF0127F
:1003100003D890E60474801203E274061203E274B8
:10032000001203E27406F5BBAAFFDAFE90E6F5744C
:10033000FF1203E2AAFFDAFEE5BB548060FA759D66
:10034000E41203D8759E001203D8759AF41203D8EC
:10035000759B011203D875AF071203D87A2090E677
:100360007BE01203D890E67CF01203D8DAF090E636
:100370001A74091203E290E6C074FCF01203D890DC
:10038000E60474801203E274061203E2740012039E
:10039000E290E410E044FB90E6C21203E2757001C3
:1003A00090E6957400F01203D8F01203D8E591C2DC
:1003B000E4F59190E65F7420F0D007D006D005D028
:1003C00004D003D002D001D000D0D0D0E0D085D06E
:1003D00084D083D082D0863200000000000000006C
:0703E00000221203D8F022F5
:00000001FF
