:030000000201A258
:03000B00020416D6
:03004300020100B7
:1001000002017F000204570002017F0002017F000C
:1001100002017F0002017F0002017F0002017F00D7
:1001200002017F0002017F0002017F000205020040
:1001300002017F0002017F0002017F0002068F00A2
:1001400002017F0002017F0002017F0002017F00A7
:1001500002017F0002017F0002017F0002017F0097
:1001600002017F0002017F0002017F0002017F0087
:1001700002017F0002017F0002017F0002017FC0B7
:1001800086C082C083C084C085C0E0C0D0E591C273
:10019000E4F591D0D0D0E0D085D084D083D082D087
:1001A000863290E60074101206E590E60B74031296
:1001B00006E575B80075F8FF90E66874081206E564
:1001C0001202F612037E1202FD007892E660FAE552
:1001D000BB548060F47401F5BB80EEC3C3C3C3C3DA
:1001E000C301010206020202020202FFFFFFFFFF3B
:1001F000FFFFFF000000000000000078927400F68E
:1002000090E60174801206E52290E60174821206DF
:10021000E585FFB390E61374A0F090E604748012B5
:1002200006E574841206E574001206E590E69574FE
:10023000001206E51206E590E6F574FF1206E5E504
:10024000BB548060FA90E6C374801206E590E6C263
:1002500074F01206E5740190E6DA1206E574019076
:10026000E6DB1206E574FF90E6CE1206E574FF9019
:10027000E6CF1206E574FF90E6D01206E574FF9013
:10028000E6D11206E5740090E6F31206E5740190DB
:10029000E6C11206E590E61974101206E590E6C074
:1002A0007400F01206DB90E781E09001DB7A06F043
:1002B000A3DAFC759DE41206DB759E001206DB9046
:1002C00001DB75AF071206DB7A20E0A3C082C08392
:1002D000C084C08590E67CF01206DBD085D084D047
:1002E00083D082DAE590E64974841206E51206E5C9
:1002F00078927401F62275B22775802222758E01DC
:10030000758A10758C0075A882758900D28C22546C
:100310007C4481C2817A0830E704D2828002C282A2
:10032000D280C28023DAF0C2827A05D280C280DA1B
:10033000FA7C007A047D08D280C280E58030E40334
:10034000EC4DFCED03FDDAEF7B007A087D80D28076
:10035000C280E58030E403EB4DFBED03FDDAEFD224
:100360008122759AF8759B0075AF077880E6F99041
:10037000E67B08E612030FEBF0ECF0D9F52290E6ED
:10038000047480F07402F07404F07406F07408F0E1
:100390007400F090E6127492F090E6187400F090F9
:1003A000E6917400F01206DBF01206DBF01206DBB9
:1003B00090E61074A0F090E68D7400F01206DBF069
:1003C0001206DB90E61474D2F090E61574E0F0901B
:1003D000E65E7488F090E65F74A0F090E65C7402CC
:1003E000F075E80175A88022E590FD5B6006E4F7F2
:1003F0000CF7801FE66D5D5C6019ED5A700CE71418
:10040000F7B4FF0F09E714F78009E704F770040950
:10041000E704F7EDF622C086C0E0C0D0C000C001FE
:10042000C002C003C004C005789879A07401FC2301
:10043000FA23FB1203E8080909EB2323FC23FA2320
:10044000FB1203E8D005D004D003D002D001D000C5
:10045000D0D0D0E0D08632C086C082C083C084C0F5
:1004600085C0E0C0D0C000C001C002C003C004C04D
:1004700005C006C007E5AA5420701312036290E677
:100480009874001206E590E69974101206E5E5AA44
:100490005401701190F0001205E390E6917400127F
:1004A00006E51206E5E591C2E4F59190E65D740279
:1004B000F0D007D006D005D004D003D002D001D0B0
:1004C00000D0D0D0E0D085D084D083D082D0863206
:1004D00090E60474801206E590E60474081206E5BE
:1004E00090E60474001206E52290E6047480120679
:1004F000E590E60474061206E590E6047400120620
:10050000E522C086C082C083C084C085C0E0C0D060
:10051000C000C001C002C003C004C005C006C007BF
:1005200090E780E07890F690052C23738047805AFE
:100530008060806680308010801680028005120204
:100540000980671201FB80621204D0120637805ABC
:1005500090E78178A0E06005F90808D9FCA3E0F6EF
:1005600008A3E0F68044789190E781E0F61204D089
:10057000120637803578807A0990E781E0F6A30883
:10058000DAFA1204E9120623802090E7811205E3CB
:10059000801890E781E0F5B3801090E781E0F5B333
:1005A000A3E0F5901204D012063790E68D74001285
:1005B00006E51206E51206E5E591C2E4F59190E63E
:1005C0005F7408F0D007D006D005D004D003D00265
:1005D000D001D000D0D0D0E0D085D084D083D082DC
:1005E000D08632E0A3F8E0FBA3E0FCA3E0A3120571
:1005F000F4D8F32254C044304CC2857A0830E70462
:10060000D2828002C282D280C28023DAF0EB7A08E2
:1006100030E704D2828002C282D280C28023DAF024
:10062000D2852212036290E69874001206E590E6E5
:100630009974101206E52290FC01E4F090FC007819
:1006400090E6F090064823738044804280408025E5
:1006500080138002803878A090FC027908E6F008C8
:10066000A3D9FA80197891E612030F90FC02EBF0FF
:10067000A3ECF0800990FC02E590F0A3E4F090E692
:100680009C74001206E590E69D74101206E522C0E7
:1006900086C082C083C084C085C0E0C0D0C000C016
:1006A00001C002C003C004C005C006C0071206375F
:1006B000E591C2E4F59190E65F7480F0D007D00632
:1006C000D005D004D003D002D001D000D0D0D0E0EB
:1006D000D085D084D083D082D08632000000000044
:0A06E0000000000022F01206DB22E9
:00000001FF
